:020000040800F2
:1000000040A9002045010008671700089D0D000861
:1000100065170008AB050008152E00080000000059
:100020000000000000000000000000007125000832
:10003000FF080008000000002D1900081D26000818
:100040005F0100085F0100085F0100085F01000810
:100050005F0100085F0100085F0100085F01000800
:100060005F0100085F0100085F0100085F010008F0
:100070005F0100085F0100085F010008A90800088F
:100080005F0100085F0100085F0100085F010008D0
:100090005F0100085F0100085F0100085F010008C0
:1000A0005F0100085F0100085F0100085F010008B0
:1000B0005F0100085F0100085F0100085F010008A0
:1000C0005F0100085F0100085F0100085F01000890
:1000D0005F010008252900085F0100085F01000892
:1000E0005F0100085F0100085F0100085F01000870
:1000F0005F0100085F0100085F0100085F01000860
:100100005F0100085F0100085F0100085F0100084F
:100110005F0100085F0100085F0100085F0100083F
:100120005F0100085F0100085F0100085F0100082F
:10013000DFF80CD000F0FCF9004800473558000803
:1001400040A900200648804706480047FEE7FEE732
:10015000FEE7FEE7FEE7FEE7FEE7FEE7FEE7FEE777
:1001600021260008310100082DE9F05F0546002036
:1001700092469B4688460646814640241BE0284618
:1001800041464746224600F08BF953465A46C01A6C
:10019000914110D311461846224600F072F92D1AEB
:1001A00067EB01084F4622460120002100F069F963
:1001B00017EB00094E41201EA4F10104DFDC484684
:1001C00031462A464346BDE8F09FD2B201E000F82E
:1001D000012B491EFBD270470022F6E710B51346EB
:1001E0000A4604461946FFF7F0FF204610BD421E9E
:1001F00012F8013F002BFBD111F8013B02F8013B43
:10020000002BF9D1704710B5044604E00B7800F8D4
:10021000013B03B1491C521EF8D2204610BD421CBE
:1002200010F8011B0029FBD1801A704710B500227D
:1002300000E0521C835C8C5CA34201D1002BF8D1FE
:10024000D8B2E1B2401A10BD034611F8012B00F8F4
:10025000012B002AF9D118467047F0B480EA010258
:10026000D40F4200B2EB410F02D2024608461146BB
:100270004A0042D0C30DDDB2C1F3C752AD1A202DE2
:1002800035DAC1F3160141F4000204B15242C5F15E
:10029000200602FA06F12A411044B3EBD05F23D0C6
:1002A000C4B1012DA0EBC35009DCF0BC4FF00042FB
:1002B00002EAC352DBB200F5000000F00AB94000C8
:1002C00000F1807000EBC350A0F1807040EAD17063
:1002D000490009E0490841EAC071A0EBC35000F5AC
:1002E0000000400800EBC350F0BC00F0E9B86142E8
:1002F000012202EB4101001BF6E7F0BC704781F0E0
:100300000041AAE780F00040A7E780EA010210B5AB
:1003100002F00043400022D04A001FD0010E01EB42
:100320001261C0F35600C2F3560240F4000042F4DA
:100330000002A0FB022000047F39140400D0401CFE
:1003400050EA124001D44000491EC2B20C0604EB30
:10035000D010401C4008802A02D003E0002010BDCD
:1003600020F00100002900DA0020184310BD30B44D
:1003700080EA010202F0004530F0004221F0004026
:1003800013D090B1C30DD40DC2F31601C0F3160003
:10039000E41A41F4000140F400027D34914201D39B
:1003A000641C00E04900002C02DA30BC00207047D9
:1003B0004FF400000023914201D3891A03434008FF
:1003C0004FEA4101F7D151B1914202D14FF00041C2
:1003D00005E002D24FF0010101E06FF0010103EBF3
:1003E000C450284430BC00F06BB8C10F80EAE07004
:1003F0000844CA079623002100F06BB800F00042C1
:1004000020F00040C10DC0F3160040F400007F2929
:1004100001DA00207047962903DCC1F19601C8403B
:1004200001E096398840002AF4D04042704720F01D
:100430000040C10DC0F3160040F400007F2901DA2E
:1004400000207047962903DCC1F19601C84070472F
:1004500096398840704730B50B460146002020226F
:10046000012409E021FA02F59D4205D303FA02F5C1
:10047000491B04FA02F52844151EA2F10102F1DC21
:1004800030BD202A04DB203A00FA02F10020704738
:100490009140C2F1200320FA03F3194390407047C2
:1004A000202A04DB203A21FA02F00021704721FAC9
:1004B00002F3D040C2F12002914008431946704730
:1004C0000029A8BF7047401C490008BF20F0010068
:1004D000704710B4B0FA80FC00FA0CF050EA010446
:1004E00004BF10BC704749B1CCF1200421FA04F4D8
:1004F00011FA0CF118BF012121430843A3EB0C01B1
:10050000CB1D4FEA00614FEA102042BF002010BC13
:10051000704700EBC35010440029A4BF10BC7047C3
:10052000401C490008BF20F0010010BC70470000CB
:10053000064C074D06E0E06840F0010394E8070030
:1005400098471034AC42F6D3FFF7F6FD10130308BA
:100550003013030870B58C1810F8015B15F0070311
:1005600001D110F8013B2A1106D110F8012B03E04C
:1005700010F8016B01F8016B5B1EF9D12B0705D454
:100580000023521E0DD401F8013BFAE710F8013B9D
:10059000CB1A921C03E013F8015B01F8015B521EB9
:1005A000F9D5A142D8D3002070BDFEE72DE9F04176
:1005B000074604F015FE4FF6FF7001F07FF81A4869
:1005C0000021038819480288084600F0F5FB02F074
:1005D0008FF80024164E174D0CE0C4EBC40000EB5E
:1005E000800006EBC000817B11B1D0F81011884764
:1005F000641CE4B22889C01C8442EED30D48002458
:100600001030394604600C48FFF710FE40B14FF43B
:1006100080710948FFF7E0FD39460748FFF714FEEF
:100620006C70BDE8F08100001C0000201A00002062
:10063000F424002018010020BC8F0020F8B50646E5
:1006400000200F468DF8000001F022FE01229402E6
:100650002146684601F096FD9DF80000A52801D0CE
:10066000012100E00021012F07D0002211434FF4A7
:10067000006521D0A52802D008E00122F6E7012F6D
:1006800004D1C02229460F4801F07CFD304602F01B
:10069000C1FE0028FAD0002001F0A4FEA5208DF8AC
:1006A000000001222146684601F096FDC02229463D
:1006B000044801F091FDF8BDC0222946014801F02F
:1006C00061FDF8BD4C000020034900F10F020A60F3
:1006D000407B0871704700002801002010B5C0B0B1
:1006E0004FF480716846FFF777FD0A4801F028F85B
:1006F000024608496846FFF786FD074CE088401E21
:10070000E0806846FFF752FF00206070A07040B0A4
:1007100010BD0000BC8F002018010020F8B52A4C45
:100720006078012808D0E078401C40B2E0700428CE
:1007300043DB401EE070F8BD4FF6FF7000F0BEFFD7
:10074000002000F0CDFF214D214E00212B88328862
:10075000084600F031FB94F90200FA22401CC11750
:1007600000EB517121F00701401A40B2A07000EB7C
:100770004001C1EBC010174901EB40011648FFF7DB
:1007800042FD15480090288800211E3883B2328827
:10079000084600F001FC114C2046D4F8101188479F
:1007A000D4F8281204F58C708847D4F8401301B0AF
:1007B00004F50C70BDE8F040084700F0D7F9BDE83B
:1007C000F8400748FFF7F2BE180100201C00002087
:1007D0001A000020BC90002044A40020F424002033
:1007E000BC8F0020F8B5294C6078012808D0E0784B
:1007F000401E40B2E070002840DA401CE070F8BDB6
:100800004FF6FF7000F05AFF002000F069FF204D06
:10081000204E00212B883288084600F0CDFA94F94A
:100820000200002801DD401EA07094F90200FA22A7
:1008300000EB4001C1EBC010174901EB4001174824
:10084000FFF7E1FC15480090288800211E3883B28C
:100850003288084600F0A0FB114C2046D4F8101155
:100860008847D4F8281204F58C708847D4F84013D0
:1008700001B004F50C70BDE8F040084700F076F9CF
:10088000BDE8F8400748FFF791BE000018010020BE
:100890001C0000201A000020BC90002044A400206E
:1008A000F4240020BC8F002070470029016802D08A
:1008B00041F0010102E04FF6FE7211400160704705
:1008C00030B5026847F6F0739A430C6A8B6823438D
:1008D000D1E904452C4323438C692343CC6923434A
:1008E0004C6A23438C6A234313430360CA68426003
:1008F0000A6882604968C16030BD416070477047D6
:10090000F8B50446007B4FF6FF71012658B30D463B
:10091000084600F0D9FE0096E0886188A288401A57
:1009200083B22088121A92B200F0D6FBA9B200203E
:1009300000F0CAFE0F4800F0CDFE04F10F00009059
:10094000E388A2886188208800F026FB00200090C0
:10095000E0886188A288401A83B22088121A92B275
:1009600000F0BAFBF8BD208980B200F0ADFEA568AA
:10097000D1E7000028000020F8B50446007B4FF6C0
:10098000FF710126C8B34CF65965284600F09CFE5D
:100990000096E0886188A288401A83B22088121AE3
:1009A00092B200F099FBA9B24FF4784000F08CFEAF
:1009B000154800F08FFEE1886288A0882388891A94
:1009C000C01A103901EBD171203802EB610100EB44
:1009D000D07003EB600089B280B20CA200F096FAEE
:1009E00000200090E0886188A288401A83B22088A5
:1009F000121A92B200F070FBF8BDFFE7208980B2B6
:100A000000F062FEA568C3E728000020B7B5BBD898
:100A100000000000F8B50446007B4FF6FF71012688
:100A2000C8B34CF65965284600F04EFE0096E088A3
:100A30006188A288401A83B22088121A92B200F00C
:100A40004BFBA9B24FF4784000F03EFE154800F091
:100A500041FEE1886288A0882388891AC01A10396B
:100A600001EBD171203802EB610100EBD07003EB98
:100A7000600089B280B20CA200F048FA0020009019
:100A8000E0886188A288401A83B22088121A92B244
:100A900000F022FBF8BDFFE7208980B200F014FED1
:100AA000A568C3E728000020CFC2D2BBD2B30000A4
:100AB000F8B50446007B4FF6FF710126C8B34CF62B
:100AC0005965284600F000FE0096E0886188A288FB
:100AD000401A83B22088121A92B200F0FDFAA9B22D
:100AE0004FF4784000F0F0FD154800F0F3FDE18888
:100AF0006288A0882388891AC01A103901EBD17145
:100B0000203802EB610100EBD07003EB600089B28A
:100B100080B20CA200F0FAF900200090E088618811
:100B2000A288401A83B22088121A92B200F0D4FA36
:100B3000F8BDFFE7208980B200F0C6FDA568C3E7D5
:100B400028000020C9CFD2BBD2B3000070B5064D3B
:100B50000024C4EB04202844FF21FFF73DFB641C64
:100B6000A4B2332CF5D370BDBC5C00200020074B31
:100B70000122C0EBC00101EB810103EBC101401C6C
:100B800080B28A730328F4D370470000F424002055
:100B900010B586B00121442000F0D6FE01210803E3
:100BA00000F0D2FE2020ADF8000003208DF80200F6
:100BB0001820234C8DF803006946204600F044F8C5
:100BC0008021ADF800106946204600F03DF8402134
:100BD000ADF8001004218DF803106946204600F09E
:100BE00033F8A015ADF8000010208DF80300694619
:100BF000204600F029F80020ADF80400ADF8080008
:100C00004FF48271ADF806100221ADF80A100121EF
:100C1000ADF81000ADF80C10ADF812004902072035
:100C2000084CADF80E10ADF8140001A9204601F0F3
:100C300062FC0121204601F09BFA06B010BD0000C5
:100C40000008014000300140F0B5CC78002204F0EB
:100C50000F03E40601D58C7823430C784FF00F0C7A
:100C600014F0FF0F4FF0010E1BD005680E880EFA2E
:100C700002F42640A64210D196000CFA06F725EAA7
:100C8000070703FA06F5CE783D43282E02D0482EFA
:100C900002D002E0446100E00461521C082AE5D35E
:100CA00005600A88FF2A1CD94468002202F1080660
:100CB0000EFA06F50E882E40AE420ED196000CFAC2
:100CC00006F7BC4303FA06F7CE783C43282E00D142
:100CD0004561CE78482E00D10561521C082AE5D323
:100CE0004460F0BDF0B5144C002801DAE36900E07F
:100CF0006368450D2E0185B2C0F30157B540C0F3BE
:100D00000342032F05D0C6020AD503269640B343FB
:100D100007E023F07062636823F07063636002E0B1
:100D2000AB4343F0706201B12A43002801DAE2616B
:100D3000F0BD6260F0BD00000000014002460020EE
:100D400092680A4200D001207047416170470161FA
:100D50007047000070B5104E05460C46307818B943
:100D600001F096FA01203070220AA13AC2EB02117A
:100D700001EB4211E0B200EB41000102A1F521417B
:100D8000C81701EB5070C1102022284601F5CB1185
:100D900001F0F8F9002070BD30000020FEE70000EF
:100DA000044A00284FF00401104601D0FFF7CDBFE0
:100DB000FFF7CDBF0014014070B51D46144600F08A
:100DC0006FFA044904FB05F00989BDE8704000F0A2
:100DD000B5B900001800002001B5009801E0401EE0
:100DE00000900028FBD108BD2DE9F04714461023E0
:100DF00088B01A4600F054FA2C2000F0E1FB21469E
:100E00006846FFF7A7FF124F0025E9464FF6FF7A25
:100E10004FF4004809EB450119F815004E780AEA2D
:100E200000200643002428FA04F0304201D0F8885C
:100E300000E0388900F0D6FB641CE4B2102CF2D339
:100E40006D1CEDB2102DE5D308B0BDE8F0870000B1
:100E5000180000202DE9F047174E203A1FFA82FCB7
:100E6000F568AA88EB8802FB03F4E71704EB5774D4
:100E7000C4F3C7072C680CFB074800F011FA2C20BC
:100E800000F09EFB00254FF0800911E0002418F8C7
:100E9000051029FA04F0014201D0F08800E0308901
:100EA00000F0A0FB641CE4B2082CF0D36D1CEDB282
:100EB000BD42EBD3BDE8F087180000202DE9F041DA
:100EC0000E4605460024104F19E0F8687B8881889B
:100ED0002144994203D9C188002429448DB2C08895
:100EE000B9882844884201D900242546294620464D
:100EF000FFF7B0FFF868761C8088204484B232780F
:100F0000002AE2D1BDE8F081180000202DE9F0416F
:100F100016460D4604461F4F37E07E2A1AD8F86859
:100F20007B8881882144994203D9C18800242944BF
:100F30008DB2C088B9882844884201D9002425464A
:100F400029462046FFF786FFF868761C80882044F3
:100F500084B21AE0798804F11000884202D9002492
:100F60001035ADB2B98805F11000884201D90024CE
:100F700025463088010201EB102082B22946204626
:100F8000FFF732FF1034A4B2B61C3278002AC4D165
:100F9000BDE8F081180000202DE9F0479846914601
:100FA0000E4605460746DFF890A0089C3FE00D2A54
:100FB0001BD00A2A1BD07E2A22D8DAF80C0081889E
:100FC00001EB050CCC4503D9C1883D4631448EB2B6
:100FD000C088811941452DD831462846FFF73AFF90
:100FE000DAF80C008088284485B2641C1FE0DAF827
:100FF0000C00C088304440451CD83D4686B2F4E71A
:1010000005F11000484502D910363D46B6B206F14A
:10101000100040450ED82088010201EB102082B25A
:1010200031462846FFF7E0FE1035ADB2A41C227809
:10103000002ABCD1BDE8F087180000202DE9FE4F42
:101040000026A2EB000883465F1A701E3546019108
:10105000B8F1000F02DD4FF0010102E003D14FF0C3
:101060000001009102E0C8F100080090002F02DDAD
:101070004FF0010002E003D14FF00000824602E091
:101080008246C7F100074046B84501DD044600E04E
:101090003C46601C4FF00009029018E05846019948
:1010A00000F07AFA46443D44A64205DD0099361B1D
:1010B0000BEB01001FFA80FBA54204DD01982D1BFC
:1010C000504480B2019009F101001FFA80F90299A1
:1010D0008945E3DDBDE8FE8F2DE9F041074606981E
:1010E0001C4615460E4650B1384600F0D9F8124954
:1010F00005FB04F0C988BDE8F04100F01FB8BD1839
:101100006D1EAAB20B463846FFF798FF3444641EA2
:10111000A3B2AAB2A1B23846FFF790FF3A46A3B2F3
:1011200031461046FFF78AFFA3B2AAB2A8B23146F1
:10113000BDE8F041FFF782BF1800002070B50546FA
:101140000E4600242C2000F03BFA03E0304600F06D
:1011500049FA641CAC42F9D370BD000038B50121D6
:10116000084600F0F1FB0121382000F0EDFB0121E1
:101170001A48FFF7B7FD03208DF8020010248DF800
:1011800003404FF6FF70ADF8000069461448FFF7C2
:101190005BFD2020134DADF8000069462846FFF79F
:1011A00053FD4021ADF8001069462846FFF74CFD7D
:1011B000ADF8004069462846FFF746FD8020ADF8AF
:1011C000000069462846FFF73FFD0420ADF8000007
:1011D00069460548FFF738FD38BD000000023000C1
:1011E000000C0140001001400014014070B504469D
:1011F000072841D8214DE2074FF0F0002C704FF442
:10120000A07136D06980A880362000F0D9F9082076
:1012100040EA441000F0E6F92A2000F0D1F900205D
:1012200000F0E0F9002000F0DDF96888401EC0F30E
:10123000072000F0D7F9A878401EC0B200F0D2F91C
:101240002B2000F0BDF9002000F0CCF9002000F0C8
:10125000C9F9A888401EC0F3072000F0C3F9287917
:10126000401EC0B200F0BEF9BDE870402C2000F076
:10127000A7B96880A980C7E770BD000018000020EA
:1012800010B5FFF76BFF0120FFF78AFD00F034F87F
:1012900002480078BDE81040FFF7A8BF1800002002
:1012A0002DE9F04105461E4617460C462A2000F05F
:1012B00087F9280A00F096F9E8B200F093F93D4466
:1012C0006D1EC5F30F2000F08DF9E8B200F08AF929
:1012D0002B2000F075F9200A00F084F9E0B200F04C
:1012E00081F93444641EC4F30F2000F07BF9E0B2AE
:1012F000BDE8F04100F076B910B54FF6FF74204616
:10130000FFF76AFDCF2000F05BF9002000F06AF9DA
:10131000812000F067F9302000F064F92046FFF7E3
:101320005BFDED2000F04CF9642000F05BF9032038
:1013300000F058F9122000F055F9812000F052F920
:101340002046FFF749FDE82000F03AF9852000F03B
:1013500049F9102000F046F9782000F043F92046C2
:10136000FFF73AFDCB2000F02BF9392000F03AF9D5
:101370002C2000F037F9002000F034F9342000F080
:1013800031F9022000F02EF92046FFF725FDF72065
:1013900000F016F9202000F025F92046FFF71CFD8B
:1013A000EA2000F00DF9002000F01CF9002000F008
:1013B00019F92046FFF710FDB12000F001F90020D7
:1013C00000F010F91B2000F00DF92046FFF704FD96
:1013D000B62000F0F5F80A2000F004F9A22000F091
:1013E00001F92046FFF7F8FCC02000F0E9F83520AD
:1013F00000F0F8F82046FFF7EFFCC12000F0E0F81D
:10140000112000F0EFF8C52000F0DAF8452000F0D8
:10141000E9F8452000F0E6F8C72000F0D1F8A22056
:1014200000F0E0F8F22000F0CBF8002000F0DAF84D
:10143000262000F0C5F8012000F0D4F82046FFF780
:10144000CBFCE02000F0BCF80F2000F0CBF8262009
:1014500000F0C8F8242000F0C5F80B2000F0C2F816
:101460000E2000F0BFF8092000F0BCF8542000F076
:10147000B9F8A82000F0B6F8462000F0B3F80C2028
:1014800000F0B0F8172000F0ADF8092000F0AAF83D
:101490000F2000F0A7F8072000F0A4F8002000F0CB
:1014A000A1F8E12000F08CF8002000F09BF8192052
:1014B00000F098F81B2000F095F8042000F092F856
:1014C000102000F08FF8072000F08CF82A2000F0A0
:1014D00089F8472000F086F8392000F083F80320CF
:1014E00000F080F8062000F07DF8062000F07AF881
:1014F000302000F077F8382000F074F80F2000F06A
:1015000071F82046FFF768FC362000F059F8C82033
:1015100000F068F82046FFF75FFC2A2000F050F842
:10152000002000F05FF8002000F05CF8002000F0E0
:1015300059F8EF2000F056F82046FFF74DFC2B201D
:1015400000F03EF8002000F04DF8002000F04AF8CE
:10155000012000F047F83F2000F044F82046FFF754
:101560003BFC3A2000F02CF8552000F03BF811200D
:1015700000F026F80548FFF72FFC2046FFF72CFC6B
:10158000BDE81040292000F01BB80000FCBF02009D
:1015900001231A46FFF784BE10B5084C62889042BA
:1015A0000AD2A288914207D2FFF7F2FFE188BDE894
:1015B00010400120FFF7C2BD10BD00001800002040
:1015C000064910224A6180234B6120230B61044BA2
:1015D00018604020486108610A61704700100140AE
:1015E0000C0C0140064910224A6180230B61202324
:1015F0000B61044B18604020486108610A61704724
:10160000001001400C0C014070B501210C4800F0A5
:101610003DF80C4C012804D10425656101F08EFBD6
:1016200025614FF40051204600F030F8012805D123
:1016300008256561044800F0D3F8256170BD0000FD
:101640000008014000100140BC8F002038B50C4953
:101650000424886940F0140088610120ADF800007E
:101660008DF8034069460748FFF7EEFAE002ADF84F
:1016700000008DF8034069460348FFF7E5FA38BDDE
:1016800000100240000801400010014070B50C46F7
:101690000546FFF753FB012801D0002070BD21460D
:1016A0002846FFF74BFB0128F9D0012070BD000050
:1016B0000148C068704700001800002001490881F7
:1016C0007047000018000020014AD0801181704747
:1016D000180000200149C860704700001800002071
:1016E0000149C8807047000018000020F8B50121AA
:1016F000102000F029F90420ADF8000010240F4E4E
:101700008DF8034003258DF8025069463046FFF7F7
:101710009BFA0820ADF800008DF803408DF80250C8
:1017200069463046FFF790FA04213046FFF70FFB79
:1017300008213046FFF70BFBF8BD00000010014008
:1017400070B500260546344605E0285D2F2800D1F7
:101750002646641CA4B22846FEF761FDA042F4D8D8
:10176000304670BDFEE7704730B50F23C278017870
:101770000125F2B1144A126801F1E02102F4E0629D
:10178000C2F5E062120AC2F10404D3404278A240DA
:1017900084781C401443220181F80024007800F072
:1017A0001F018D404009800000F1E020C0F8005189
:1017B00030BD01F01F0085404809800000F1E020A5
:1017C000C0F8805130BD00000CED00E00249084334
:1017D00002490860704700000000FA050CED00E0C7
:1017E0002DE9F041464C8046C2B02068002831D037
:1017F0004FF6FF70FFF762FF424E434F00213388E0
:101800003A880846FFF7D8FA4FF48075294601A8B0
:10181000FEF7E2FC414601A8FEF7E9FC3BA101A866
:10182000FEF7E5FC01A82168FEF7E1FC29463848EF
:10183000FEF7D2FC01A93648FEF706FDA4F110051B
:10184000E888401CE880207938B1FFF78FF901A8BB
:10185000FEF7ACFE42B0BDE8F08141F28838414667
:101860002C48FEF7B9FC2B89032000222A4CDB1CF4
:1018700008E0C0EBC00101EB810104EBC101401C99
:101880008A7380B29842F4D3FFF770F9012201A95C
:10189000224803F08DF9287100BB194B42461B1FEB
:1018A0001C491E4803F05CFA287195F90200FA22DF
:1018B00000EB4001C1EBC010164901EB4001184894
:1018C000FEF7A1FC287948B915480090308800211E
:1018D0001E3883B23A880846FFF75EFB0F4802F0D5
:1018E000CEFDD4F810110C488847D4F828120D48C2
:1018F0008847D4F840130C48884701206870A9E74E
:10190000280100201C0000201A0000202F000000E9
:10191000BC8F0020BC900020F4240020D0140020B4
:1019200044A400200C26002024270020704700003B
:10193000044A0029516901D0014300E0814351610B
:101940007047000000100240044A0029916901D04C
:10195000014300E0814391617047000000100240A4
:1019600030B5204A5168204B11F00C0103D00429F6
:1019700001D0082901D0036012E05168536801F4D6
:1019800070114FF0020413F4803F04EB914102D038
:1019900053689B0301D5154B00E0134B594301607D
:1019A00051680F2303EA1111114B5C5C0168E1409F
:1019B00041605468072505EA14241C5D21FA04F4EB
:1019C0008460546805EAD4241B5DD940C160526824
:1019D000032303EA9232064B1B1F9A5CB1FBF2F120
:1019E000016130BD0010024000127A0000093D0084
:1019F000040000202DE9FF41FF26DFF8FC800446AB
:101A0000771C002539464046FFF79FF9FF22002149
:101A10000A2000F023FB002000F05FFA88B9FE20C6
:101A200000F05BFA30B96E4600F0B0FA70556D1CEC
:101A3000102DF9D3FF2000F02DFBFF2000F02AFB32
:101A4000002639464046FFF782F9FF2000F022FBCE
:101A50009DF8000020709DF8010000026080608801
:101A60009DF80210084360809DF803000006606046
:101A700060689DF8041040EA0140606060689DF86D
:101A8000051040EA0120606060689DF80610084378
:101A900060609DF8070020729DF8080060729DF854
:101AA00009000006E060E0689DF80A1040EA014085
:101AB000E060E0689DF80B1040EA0120E060E0681B
:101AC0009DF80C100843E060217C9DF80D0041EA70
:101AD000101121740007000D6082608A9DF80E10BD
:101AE000084360829DF80F00400820750120607552
:101AF00004B03046BDE8F081000801402DE9FF4107
:101B0000FF26DFF8C4810446771C0025394640468D
:101B1000FFF71BF9FF220021092000F09FFA0020A7
:101B200000F0DBF988B9FE2000F0D7F930B96E4635
:101B300000F02CFA70556D1C102DF9D3FF2000F029
:101B4000A9FAFF2000F0A6FA002639464046FFF722
:101B5000FEF8FF2000F09EFA9DF800008109217038
:101B6000C0F38301617000F00300A0709DF80100D4
:101B7000E0709DF8020020719DF8030060719DF8EF
:101B800004000001E080E1889DF8050041EA1011A1
:101B9000E18000F00F0020729DF80600C10961721B
:101BA000C0F38011A172C0F34011E172C0F30011C3
:101BB0002173002161738007000D20614348007884
:101BC000012804D0022802D0042823D032E0206962
:101BD0009DF8072040EA8200206122699DF80800F4
:101BE00042EA90122261C0F3C202227500F007009F
:101BF00060759DF809004209A275C0F38202E27582
:101C00008007400F2076207E9DF80A2040EAD210FF
:101C100020760FE09DF807008006800A2061206989
:101C20009DF8082040EA0220206120699DF80920E3
:101C3000104320619DF80A00C0F3801204F8192FA8
:101C40008006400E607062789DF80B0042EAD01268
:101C5000627000F07F00A0709DF80C00C209E27075
:101C6000C0F341122271C0F3820262718007000F3B
:101C7000A071A2799DF80D0042EA9012A271C0F302
:101C80004012E271217200F0010060729DF80E00B6
:101C9000C109A172C0F38011E172C0F34011217338
:101CA000C0F300116173C0F38101A17300F0030060
:101CB000E0739DF80F00400820740120607404B0A8
:101CC0003046BDE8F08100000008014038000020E7
:101CD0002DE9F0410446FFF711FF04F12C00FFF756
:101CE00089FE0546184800260078012804D00228FD
:101CF00002D004281AD024E02169227E0120921CFF
:101D000000FA02F2D717491CA1FB023C06FB02C2F3
:101D100001FB0721227A9040A3FB0027206501FBED
:101D2000007003FB0600C4E912200AE02069F104F8
:101D3000401C41EA5031C004C4E912014FF4007064
:101D400020652846BDE8F081380000202DE9F843E1
:101D5000534F4FF4807640F6FF7431463846FEF715
:101D6000F6FFFF2000F096F931463846FEF7EDFF0A
:101D700087224FF4D571082000F070F900E0641E4E
:101D800000F004F9FF2808D0002C7AD0DFF8148185
:101D9000052805D001281AD079E0002CEFD170E099
:101DA00031463846FEF7D3FFFF2000F073F9314685
:101DB0003846FEF7CAFFFF220021012000F04EF94D
:101DC000002000F08AF80028EAD101215DE000241B
:101DD0006D4600F0DBF82855641C042CF9D331461D
:101DE0003846FEF7B4FFFF2000F054F9314638467C
:101DF000FEF7ABFF9DF80200012848D19DF80300D3
:101E0000AA2844D1C8244FF08049FF22002137205E
:101E100000F024F9002000F060F888B3FF22494662
:101E2000292000F01BF9641E2BD3002000F055F888
:101E30000028EAD1C82431463846FEF788FFFF2043
:101E400000F028F931463846FEF77FFFFF220021D7
:101E50003A2000F003F9002000F03FF80028EAD112
:101E6000641EE8D364B1002400F090F82855641C87
:101E7000042CF9D39DF80000400605D5042104E0A8
:101E8000FFE7FF20BDE8F883022188F80010314603
:101E90003846FEF75CFFFF2000F0FCF80020F1E779
:101EA000000801403800002070B5002500F06EF8F1
:101EB00000F01F04052C06D00B2C0AD00D2C0AD0E4
:101EC0006D1C402DF2D900F061F80028FBD02046AF
:101ED00070BD0B2070BD0D2070BD70B5054640F67D
:101EE000FF7400E0641E00F051F8A84202D0002CFC
:101EF000F8D102E00CB1002070BDFF2070BD0000E1
:101F000070B50D4D4FF4807421462846FEF71DFF35
:101F100000219522084600F0A1F80120FFF7DDFF1F
:101F200008B1FF2070BD21462846FEF710FFFF20B4
:101F300000F0B0F8002070BD0008014070B500242A
:101F4000FEF726FE4FF480710D48FEF700FFFF20DC
:101F500000F0A0F8641C092CF9D90024094DFFF702
:101F6000CFFFFFF7F3FE287820B1BDE870400648A8
:101F7000FFF7AEBE2046641C0A28F0D8FF2070BDD3
:101F800000080140380000206813002010B50B4CF9
:101F90000221204600F0A4FA0028F9D0FF212046B3
:101FA00000F0A7FA0121204600F09AFA0028F9D0A3
:101FB000204600F09CFAC0B210BD00000030014085
:101FC0002DE9F05F05462348DDE90A79007800260F
:101FD000FF249046042804D1C7014FEA582040EA64
:101FE000C358DFF874B04FF4807A51465846FEF774
:101FF000ACFE13E018EB06014FF0FF024FF01100AA
:1020000000F02CF80020FFF768FF10B1FF20BDE8BA
:10201000F09FFE20FFF761FF60B1FF24B9F10109D5
:10202000E8D251465846FEF792FEFF2000F032F803
:102030002046ECE7002404E0FFF7A8FF05F8010BB9
:10204000641CBC42F8D33E44FFF7A0FFFFF79EFF9D
:102050000024E3E738000020000801407CB540F090
:1020600040008DF80000080E8DF80100080C0024D7
:102070008DF80200080A8DF804108DF803008DF821
:1020800005206D46285D00F005F8641C062CF9D388
:102090007CBD000070B50B4C05460221204600F0C7
:1020A0001FFA0028F9D02946204600F022FA012123
:1020B000204600F015FA0028F9D0204600F017FA63
:1020C000C0B270BD003001402DE9F05F05462648E2
:1020D000DDE90A7900780026FF249046042804D11F
:1020E000C7014FEA582040EAC358DFF880B04FF4E8
:1020F000807A51465846FEF728FE26E018EB060186
:102100004FF0FF024FF01800FFF7A8FF0020FFF785
:10211000E4FE00284FF0FF0022D1FFF7BBFFFE20B6
:10212000FFF7B8FF002404E02878FFF7B3FF641C32
:102130006D1CBC42F8D33E44FFF728FFFFF726FF93
:10214000FFF7B2FE05280DD0FF24B9F10109D5D261
:1021500051465846FEF7FBFDFF20FFF79BFF204648
:10216000BDE8F09F0024F0E738000020000801409F
:102170000029018802D041F0400101E021F0400136
:10218000018070472DE9F041124E0F460446154676
:1021900010213046FEF7D9FD032000F047F9C7F3C0
:1021A000074000F043F9C7F3072000F03FF9F8B209
:1021B00000F03CF904E0FF2000F038F904F8010BCE
:1021C0006D1EADB2F7D23046BDE8F0411021FEF7EA
:1021D000BEBD0000000801402DE9F04706460D464F
:1021E00011F0FF00C0F10001CFB24FEA122402F05B
:1021F000FF094FF4807A13D0E8B24042C0B205EB39
:1022000000080CB3D01B80B2040A00F0FF093A4664
:102210002946304600F098F83E44454657462DE0A2
:102220006CB15746641EE4B20CD33A462946304698
:1022300000F08AF805F5807506F58076F2E7294604
:1022400030460EE04A46FAE7B945F8D9A9EB07004F
:10225000C4B23A462946304600F076F84146F019B5
:102260002246BDE8F04700F06FB83A4629463046AE
:1022700000F06AF805F5807506F58076641EE4B214
:10228000F3D2B9F1000001D00246D8E7BDE8F087EB
:1022900010B5012186B00803FFF756FB0121C420C9
:1022A000FFF752FB1020ADF8140003218DF8161033
:1022B000234C8DF8170005A92046FEF7C5FC202108
:1022C000ADF8141018218DF8171005A92046FEF757
:1022D000BBFC4021ADF8141005A92046FEF7B4FC64
:1022E0008020ADF8140005A92046FEF7ADFC1021B2
:1022F0002046FEF72CFD0020ADF800004FF482715F
:10230000ADF80210ADF804000221ADF8061001216D
:10231000ADF808104902ADF80A100821ADF80C100C
:10232000ADF80E000720074CADF8100069462046B6
:1023300000F0E1F801212046FFF71AFF06B010BDBA
:1023400000080140003001402DE9F04114460F46DD
:10235000054600F0B3F8154E10213046FEF7F5FCA7
:10236000022000F063F8C7F3074000F05FF8C7F3FE
:10237000072000F05BF8F8B200F058F8B01584427E
:1023800008D904460AA001F0FBF903E0287800F020
:102390004DF86D1C641EA4B2F8D210213046FEF731
:1023A000D6FCBDE8F04100F073B800000008014021
:1023B0003C3C2D464C4153482D4552524F522D3EE8
:1023C0003E205350495F464C4153485F506167651A
:1023D000577269746520746F6F206C617267652134
:1023E0000A00000070B5044600F068F800F050F8EC
:1023F0000D4D10212846FEF7A8FC202000F016F80D
:10240000C4F3074000F012F8C4F3072000F00EF800
:10241000E0B200F00BF810212846FEF798FCBDE86A
:10242000704000F035B80000000801402DE9F0418F
:10243000154C4FF4805507462560144E03E0206884
:10244000411E216010D30221304600F049F80028D7
:10245000F5D03946304600F04CF8256009E0216897
:10246000481E206005D2012000F062F8C0B2BDE82D
:10247000F0810121304600F033F80028EFD03046DB
:1024800000F035F8F2E70000340000200030014091
:1024900010B5094C10212046FEF757FC0520FFF728
:1024A000C5FFFF20FFF7C2FFC007FAD12046BDE8F5
:1024B00010401021FEF74BBC0008014010B5074C3E
:1024C00010212046FEF741FC0620FFF7AFFF204613
:1024D000BDE810401021FEF73ABC000000080140A2
:1024E0000246002012890A4200D0012070478089EC
:1024F00070478181704730B502884C8802F441539F
:102500000A88CD8822438C882C4322430C8922439D
:102510004C8922438C892243CC8922431A4302806E
:10252000828B22F400628283098A018230BD00001E
:1025300010B5014602A001F023F9002010BD0000F3
:102540003C3C2D464C4153482D4552524F522D3E56
:102550003E2053504920B5C8B4FDB3ACCAB1216583
:1025600072726F72436F6465203D2025640A00001B
:10257000704700000CB500222648009201920168C5
:1025800041F4803101604FF4A063016801F400312F
:1025900001910099491C0091019911B90099994242
:1025A000F3D10168890333D5012101911A490A68E1
:1025B00042F010020A600A6822F003020A600A6808
:1025C00042F002020A60416841604168416041682E
:1025D00041F480614160416821F47C1141604168AF
:1025E00041F4E8114160016841F0807101600168C7
:1025F0008901FCD5416821F003014160416841F047
:10260000020141604168C1F381010229FAD10CBD88
:1026100001920CBD001002400020024070470000F3
:102620000F4810B5016841F00101016041680D4A91
:102630001140416001680C4A11400160016821F4B9
:1026400080210160416821F4FE0141604FF41F01C7
:102650008160FFF78FFF05494FF00060086010BDF3
:10266000001002400000FFF8FFFFF6FE08ED00E05A
:102670002DE9F0470D4606460024DFF86C80DFF8B0
:102680006C9029E0C4EBC40000EB800108EBC100B2
:10269000837BFBB18388B34211D3C388AB420ED393
:1026A0004388AB420BD838F83110B14207D8017BD0
:1026B00081B901210173D0F8101188470AE0017B2C
:1026C000012907D100270773D0F810118847074860
:1026D00010300760641CE4B2B9F80800C01C8442E2
:1026E000D0D3BDE8F0870000F424002018010020BA
:1026F0002DE9F05FDFF86CC1032100249CF9030091
:102700004FF4917800EB400001EB80030F2101EBC7
:1027100080095548502146F20C3E0480A0F8028002
:10272000818052492546DEB20988C180C0F808E0A0
:10273000BCF8067009F0FF0B22464FF0010C17B1F0
:1027400080F80EC000E082730273494FC0F8107128
:10275000484FC0F81471A027A0F81871A0F81A818A
:10276000F027A0F81C71A0F81E11C0F820E180F835
:1027700026C180F82421404FC0F828723F4FC0F88E
:102780002C725027A0F83072A0F83282A027A0F84F
:102790003472A0F83612C0F838E280F83EC280F8F1
:1027A0003C223749C0F840133649DFB209F0FF0335
:1027B000C0F84413E24603219146B94201D399423D
:1027C00008D3C1EBC10000EB800C274800EBCC0024
:1027D00080F80E90491CC9B23329EED33DE0C6EB18
:1027E000C600214900EB800001EBC00721F8304012
:1027F00025487D803C34BC8005F150083044A7F862
:10280000068010F8030C28B14FF60840B86087F82E
:102810000DA004E04FF4FC60B86087F80D901B49F0
:10282000C6EB0620014487F80EA087F80C9007F14C
:102830000F00A1F2FD21FDF707FD1548C7F81001B3
:102840001448C7F814011448A4B20088844202D383
:1028500000241FFA88F5761CB6B25E45BFD3BDE8EA
:10286000F09F000018010020F42400201C0000202C
:1028700079090008DD060008150A00081D07000890
:10288000B10A0008E5070008898F0020BC5C002021
:1028900001090008C90600081A0000202DE9F041CE
:1028A00002461F4800241D4E0389DB1C32E0C4EBA6
:1028B000C40000EB800006EBC005AF7B47B3AF88D8
:1028C000974225D936F83000904221D2E8888842D4
:1028D0001ED9688888421BD21CB1012C01D0022C61
:1028E0000BD1C4EBC40000EB800006EBC00000215C
:1028F0000173D5F8101128468847C4EBC40000EBDB
:10290000800006EBC000D5F81411BDE8F04108477F
:10291000641CE4B29C42CAD3BDE8F081F4240020D8
:102920001801002070B5104C40F22441204600F000
:1029300094F8012817D10D4D00212846FDF7B5FF69
:1029400000F05CF9A1152846FDF7D7FF01212846C4
:10295000FDF7ABFF204600F00DF92046BDE87040C2
:10296000102100F005B870BD003801405800024049
:10297000C943018070470029818902D041F4005188
:1029800001E021F4005181817047000010B586B04C
:1029900001210420FEF7D8FF01218803FEF7D4FFB0
:1029A0004FF4A060FEF712FF25208DF814000120DF
:1029B0008DF817008DF8150003248DF8164005A832
:1029C000FEF7D2FE4FF40070ADF8100018208DF81D
:1029D00013008DF81240174C04A92046FEF734F975
:1029E0002115ADF8101004218DF8131004A920460C
:1029F000FEF72AF94FF4E13000900020ADF8040012
:102A0000ADF80600ADF80800ADF80C000C200A4C3B
:102A1000ADF80A006946204600F056F8012240F25F
:102A20002441204600F038F801212046FFF7A3FF9B
:102A300006B010BD0008014000380140002A828A1B
:102A400001D00A4300E08A43828270470246002098
:102A500012880A4200D00120704770B501F01F05AE
:102A600001260024C1F3421306FA05F2012B0FD010
:102A7000022B0FD0838A4FEA11210088134206FAF5
:102A800001F600EA060001D000B10124204670BD25
:102A90008389F0E7038AEEE710B5C1F3421301F032
:102AA0001F040121A140012B07D0022B07D01430B5
:102AB000002A026805D00A4304E00C30F8E7103021
:102AC000F6E78A43026010BD30B50446008A85B03F
:102AD0000D464CF6FF710840E98801432182A08928
:102AE0004EF6F3110840A9882A8911436A890243E6
:102AF0001143A181A08A4FF6FF410840A9890143F3
:102B0000A1826846FEF72CFF1948844201D1039840
:102B100000E00298A189090400EBC00101EB00105C
:102B2000296801D5490000E08900B0FBF1F064227A
:102B3000B0FBF2F109010B096FF018056B4300EBD4
:102B40008300A3891D044FF0320306D503EBC000B8
:102B5000B0FBF2F000F0070005E003EB0010B0FB63
:102B6000F2F000F00F000843208105B030BD0000F6
:102B7000003801408088C0F308007047C1F30801A5
:102B80008180704770B501218CB00846FEF7D0FEF9
:102B900016480090164801A900244FF4807581E87A
:102BA00031008020CDE9044020200694CDE9074083
:102BB000C001CDE909040F4E69463046FDF780FE9D
:102BC00001213046FDF771FE1020CDE90205089481
:102BD000084C09480190143C69462046FDF770FEF8
:102BE00000212046FDF761FE0CB070BD04380140A5
:102BF000641100205800024064120020F0B5C1B0FA
:102C00004FF4807631466846FDF7E6FA0C223C49DF
:102C10006846FDF7F8FA69463AA0FDF707FB3D4F15
:102C20003D4D042448B169463CA0FDF7FFFA002859
:102C3000287834D001283BD05BE07C6101202870EB
:102C4000C8213A48FDF7C8FA687801281BD03849EE
:102C50003648FDF7F9FA31463548FDF7BDFA3349F4
:102C60003348FDF7F1FA33A13048FDF7C0FA2449A3
:102C70002E480C31FDF7BBFA2C490A2201F5887069
:102C800001F096FF31E02A48FEF75AFD0246284936
:102C90002648FDF7B8FAE888401EE880DBE70128FF
:102CA00027D1002028702248FDF780FC3C6120E0FD
:102CB0001E49022201F5887001F07AFF2871104840
:102CC000FDF7ADFAFF2804D80D48FDF7A8FA84B245
:102CD00000E034461848C16801F0E8FB0E4B22467C
:102CE0000C330749144802F063F92871124801F0C7
:102CF000C6FB31460248FDF76FFA41B0F0BD000057
:102D0000641100207478745F646174615F7374612E
:102D10000000000000100140180100207478745F6A
:102D2000646174615F656E6400000000C013002080
:102D3000BC8F00202F000000D014002070B5284E5A
:102D4000C0B03068002848D04FF480752946254827
:102D5000FDF742FA24A12348FDF776FA21483168AD
:102D6000FDF745FA00F058F829466846FDF734FAB1
:102D700021496846FDF768FAA6F11004607838B971
:102D80001EA16846FDF733FA68463168FDF72FFA51
:102D9000012269461A4801F00BFF207180B92946CB
:102DA0001048FDF719FA0E4B2A461B1F0D4914480F
:102DB00001F0D6FF207100F02FF8E068FF28EED870
:102DC0000F4801F05CFB29460648FDF705FA0DA106
:102DD0000448FDF739FA00F01FF840B070BD00005C
:102DE00028010020641200207478745F64617461AB
:102DF0005F73746100000000BC8F00202F00000092
:102E0000D01400207478745F646174615F656E64CF
:102E100000000000FEE7000038B5154C01212046F7
:102E2000FDF743FD134D012280212846FFF706FEE2
:102E300040212846FFF70AFE0028F9D00E480090EE
:102E4000401E0090FCD1002280212846FFF7F6FDAD
:102E500000212046FDF729FD4FF480712046FDF743
:102E60004CFD2046BDE838400121FDF71EBD0000A5
:102E70004400024000380140FFFF0F002DE9F047F9
:102E80000C460546B1F90010B4F9100016460A1AAE
:102E9000B4F90A30B4F9121001275B1A5A43B4F995
:102EA0000830C01AB4F90230591A00FB0120FDF7AE
:102EB0009CFA10F0FF4FB0617ED0B5F90010B5F963
:102EC0001000B4F90A300A1AB4F912105B1A5A4306
:102ED000B5F90830C01AB4F90230591A00FB0120C4
:102EE000FDF783FA3060B4F90000B4F91010B5F9B9
:102EF0000830421AB5F910001B1A5A43B5F90030D0
:102F0000C01AB4F90830591A00FB0120FDF76DFA18
:102F10007060B4F91030B5F90890B4F90820B5F92B
:102F2000101003FB09F002FB110CB4F902000CFBBA
:102F300000FCB4F9000000FB01F8B5F9001003FB38
:102F40001183B4F90A804A4303FB08C300FB19202C
:102F5000B4F9121000FB0130FDF747FAB060B5F983
:102F60000200B5F91210B4F90A30421AB4F912008D
:102F70001B1A5A43B5F90A30C91AB4F90230181AA3
:102F800001FB0020FDF731FAF060B4F90000B4F95C
:102F90001010B5F90A30421AB5F912001B1A5A433B
:102FA000B5F90230C01AB4F90830591A00FB0120F3
:102FB000FDF71BFA306100E027E0B4F91020B5F905
:102FC0000A80B4F90810B5F9123002FB08F001FBD1
:102FD000130CB4F90200B5F902500CFB00FCB4F973
:102FE00000006943434302FB1532B4F90A3000FB89
:102FF000181002FB03C2B4F9121000FB0120FDF708
:10300000F4F970613846BDE8F0870027FAE701B5AA
:10301000002104E00C20401EC0B2FCD2491C0098E4
:103020008142F7D308BD00002DE9FC4706460D4656
:103030004FF00109684600F0E1F8C8B3BDF902009D
:10304000FDF7D3F902461D48007800EB400805EB78
:10305000C80410466168FDF758F90746BDF900003D
:10306000FDF7C3F955F83810FDF74FF93946FDF76C
:10307000F4F8A168FDF7F1F8FDF7C0F93080BDF96B
:103080000200FDF7B2F92169FDF73FF90546BDF9E8
:103090000000FDF7AAF9E168FDF737F92946FDF7C9
:1030A000DCF86169FDF7D9F8FDF7A8F9708002E056
:1030B000FFE74FF000094846BDE8FC8718000020F4
:1030C0002DE9F84301211020FEF73EFC4FF48070FB
:1030D000ADF800000124DFF870808DF80240102662
:1030E0008DF8036069464046FDF7AEFDA002ADF8DD
:1030F000000069464046FDF7A7FDE002ADF800007C
:103100008DF8024048278DF8037069464046FDF768
:103110009BFD6502ADF800508DF802408DF803600C
:1031200069464046FDF790FD29464046FDF70DFEF5
:103130002003ADF800008DF8037069464046FDF7A6
:1031400083FDBDE8F8830000001001402DE9F04741
:10315000294E05464FF4806739463046FDF7F5FDA8
:103160004FF4807841463046FDF7EFFDB946002424
:103170004746C4F1070025FA00F0C007494630462B
:1031800002D0FDF7E4FD01E0FDF7DFFD0520FFF7CC
:103190003EFF39463046FDF7DAFD0520FFF737FFE1
:1031A00039463046FDF7D1FD641CE4B2082CE0D36B
:1031B000002549463046FDF7C8FD39463046FDF743
:1031C000C6FD00244FF4006839463046FDF7BDFDCA
:1031D00041463046FDF7B2FDC4F10B01884028435B
:1031E00085B239463046FDF7B2FD641CE4B20C2CC2
:1031F000EAD32846BDE8F087001001402DE9F043EE
:103200008DB00546002628216846FCF7E5FFDFF86B
:103210002C914FF480586C469020FFF797FF07469B
:103220000120FFF7F4FED020FFF790FFADF82870E3
:10323000ADF82C0024F8167004EB4601761C888249
:10324000F6B241464846FDF779FD08B90A2EE3D3A8
:1032500041464846FDF772FD10B13949002008701B
:103260000A2E03D000200DB0BDE8F083BDF9006048
:10327000BDF91400B44667460346012134F9112014
:10328000BA4201DA174602E0B24200DD1646491C96
:10329000C9B20A29F2D3012104EB4102B2F9142088
:1032A0009A4201DA134602E0824200DD1046491CD0
:1032B000C9B20A29F0D3BDF90210BDF90420BDF945
:1032C0000640614422441144BDF908201144BDF96F
:1032D0000A201144BDF90C201144BDF90E201144FF
:1032E000BDF910201144BDF912201144C91B891BDE
:1032F000C9102980BDF91410BDF91620BDF91A4076
:103300001144BDF9182022441144BDF91C20114478
:10331000BDF91E201144BDF920201144BDF9222021
:103320001144BDF924201144BDF926201144C91AC5
:10333000081AC0106880012095E7000000100140C5
:103340003C0000202DE9F041174C00260127607851
:10335000164A3546390330B14FF00208012807D02C
:10336000022818D113E01046FDF7E8FC68B112E01E
:103370001046FDF7E3FC08B165600CE06068401C96
:103380006060022801D9656009E0677004E01046BA
:10339000FDF7D4FC18B165703046BDE8F08184F8C3
:1033A00001800126F8E700003C00002000100140E9
:1033B000B0F90410491C03D041880088FFF758B9C0
:1033C0007047000010B5FFF7BDFF0C4C012809D075
:1033D000204600F015F84FF0FF3020806080A0807C
:1033E000E08010BD054905480831FFF71DFE034880
:1033F000FFF7DEFF2088A0806088F1E7440000200E
:10340000B0F90410491C03D0C1888088FFF746BA80
:10341000704700002DE9F14FB2B0BD48FEF75AF9F0
:1034200000211F20FEF750F93298FDF7DFFEB94D5D
:10343000B94EAA462A88B1469108ADF8841033885F
:1034400002EB4202ADF88C1042F38F02980803EBB6
:10345000430141F38F01ADF89420ADF89C20ADF805
:103460008600ADF88E10ADF89610ADF89E000024E1
:103470000DF1A40B00214D46B9F800305646BAF8BC
:1034800000200846FDF798FC0FF29028FEF710F98F
:1034900080883188B1FBF0F74046FCF7C0FE381A4F
:1034A00042082023A3A101A8CDF8008000F078F9FC
:1034B000288801A94008FDF701FDFEF7F9F880888A
:1034C0003188671CB1FBF0F0401E00EBD070421059
:1034D00020239AA101A8009700F062F9FEF7E8F80E
:1034E000C0882988C0EB510080B201A9FDF7E6FC35
:1034F0009448FFF78CFD21A830F8345000EBC4004D
:10350000468805F10A0082B21438334680B2194663
:10351000FDF794FD06F10A0083B20A3E2A46B1B2D5
:103520001046FDF78BFD0BEBC4042046FFF766FE4B
:103530000028FAD0FCB2042C9CD31AAA29A921A8ED
:10354000FFF79CFC2098DFF8008210F0FF4F79D045
:10355000BDF9BE00FCF749FF05461B99FCF7D5FEF7
:103560000446BDF9BC00FCF740FF06461A99FCF77B
:10357000CCFE2146FCF771FE1C99FCF76EFE2099EB
:10358000FCF7F5FEFCF753FF84B228461E99FCF7C2
:10359000BCFE054630461D99FCF7B7FE2946FCF7F0
:1035A0005CFE1F99FCF759FE2099FCF7E0FEFCF742
:1035B0003EFFBDF99C1080B2A14201DA611A00E021
:1035C000091B8AB2BDF99E10814201DA401A00E05F
:1035D000081A80B20F2A54D80F2852D820991A9866
:1035E000FCF7C5FE3299594D01EB410445F8340012
:1035F00020991B98FCF7BBFE05EBC4046060209982
:103600001C98FCF7B4FEA06020991D98FCF7AFFE53
:10361000E06020991E98FCF7AAFE2061DDE91F01F9
:10362000FCF7A5FE606100214D46B9F80030564612
:10363000BAF800200846FDF7BFFB4FF4FC60FEF728
:103640004FF800E01DE042A4FEF732F88088318890
:10365000B1FBF0F62046FCF7E2FD301A42082023C9
:1036600034A101A8009400F09BF8288801A9400823
:10367000FDF724FC4046FFF7CAFC012033B0BDE84B
:10368000F08F00214C46B9F800305546BAF80020BA
:103690000846FDF791FB4FF47840FEF721F831A67C
:1036A000FEF706F880882988B1FBF0F73046FCF772
:1036B000B6FD381A420820231EA101A8009600F08A
:1036C0006FF8208801A94008FDF7F8FB29A6FDF74F
:1036D000EFFF80882988B1FBF0F53046FCF79FFDAD
:1036E000281A4208202313A101A8009600F058F8D8
:1036F000FDF7DEFFC088218800EB510080B201A9F0
:10370000FDF7DCFB4046FFF782FC0020B6E7000037
:10371000280000201A0000201C000020546F756350
:10372000682043616C696272617465202E2E2E2EB2
:103730002E2E0000252A632573000000252A63250C
:1037400064000000E093040040420F004C000020A1
:1037500043616C696272617465205375636365646B
:103760000000000043616C696272617465206661EB
:10377000696C000074727920616761696E000000F5
:103780000FB4054B10B503A9044A029800F02CF8B9
:1037900010BC5DF814FB00008555000830010020C6
:1037A0000FB4084B10B504A902AA039800F01CF846
:1037B000044602A9002000F0B8F9204610BC5DF8CC
:1037C00014FB00002B3B000802E008C8121F08C1D0
:1037D000002AFAD170477047002001E001C1121F92
:1037E000002AFBD1704700002DE9FF4F8BB08846BF
:1037F0000546002606E025280BD0DDE90D1290478E
:103800006D1C761C28780028F5D10FB03046BDE835
:10381000F08F0024A146A2460122AE4900E00443F5
:1038200015F8013F203B02FA03F00842F7D128784F
:103830002A2810D06FF02F022878A0F13001092932
:1038400015D809EB890102EB410144F0020400EBB9
:1038500001096D1CF0E758F8041B5FEA010903D564
:1038600044F40054C9F1000944F002046D1C2878A6
:103870002E2817D115F8010F44F004042A280ED081
:103880006FF02F022878A0F1300109290AD80AEB3D
:103890008A0102EB410100EB010A6D1CF2E758F8C6
:1038A00004AB6D1C28786C280FD006DC4C2817D090
:1038B00068280DD06A2814D104E0742810D07A2822
:1038C0000FD10DE044F400140AE044F4801401E048
:1038D00044F440146978814202D104F580146D1CCF
:1038E0006D1C2878692865D006DC00288DD06328F7
:1038F00027D0642806D15DE06E2808D073282AD02E
:10390000752877D0DDE90D129047761CE0E0C4F30E
:103910000250022809D003280DD0D8F8001004283E
:103920000DD00E6008F10408D2E0D8F80010F217AC
:10393000C1E90062F6E7D8F800100E80F2E70E70D9
:10394000F0E718F8041B8DF8001000208DF8010036
:10395000EB46012003E058F804BB4FF0FF3061074D
:103960004FF0000701D40AE07F1C57450DDA87426B
:10397000FADB1BF807100029F6D106E07F1C87420E
:10398000FCDB1BF807100029F8D1DDE90D23A9EBBA
:1039900007008146214600F0B1F83044C61904E022
:1039A000DDE90D121BF8010B90477F1EF8D221466E
:1039B000484688E058F8040BC4F302514FF00A0B54
:1039C000032900D100B2042900D140B2002802DA54
:1039D00040422D2102E0210505D52B218DF8241030
:1039E000012104E006E0E10710D02021F6E708AF4E
:1039F000089113E058F8040BC4F302514FF00A0B7E
:103A0000032900D180B2042900D1C0B20021EEE721
:103A10005946FCF720FD303107F8011D0028F7D189
:103A2000ADEB070000F1200B600702D524F48034D1
:103A300001E04FF0010ADA4502DDAAEB0B0000E0DD
:103A40000020824600EB0B0108980144A9EB01001D
:103A50000A90E00306D4DDE90D2321460A9800F020
:103A60004DF806444FF0000908E009A911F80900D3
:103A7000DDE90D12904709F10109761C0899894585
:103A8000F3DBE0030CD5DDE90D2321460A9800F0B5
:103A900035F8064404E0DDE90D1230209047761C2D
:103AA000BAF10001AAF1010AF5DC05E0DDE90D1229
:103AB00017F8010B9047761CBBF10001ABF1010B2D
:103AC000F4DC0A982146DDE90D2300F005F80644F0
:103AD0006D1C97E6092801002DE9F04104460025F8
:103AE0001E461746880404D405E039462020B04716
:103AF0006D1C641EF9D52846BDE8F0812DE9F04122
:103B0000044600251E469046C80301D5302700E034
:103B10002027880404D505E041463846B0476D1C8F
:103B2000641EF9D52846BDE8F0810A68531C0B6075
:103B30001070704710B5044600202071401EE062EE
:103B4000204601F0EEFE08B1032010BDB4F82E02AD
:103B5000A0F52A41553901D0022010BD94F8660025
:103B6000B4F8671040EA01210848B0EB012F08D0F3
:103B700094F88210B4F8832041EA0221B0EB012FBF
:103B800001D1002010BD012010BD000000464154AD
:103B900000E0401C02780AB18A42FAD1D0B27047E4
:103BA0004269891E921E8A4201D800207047826AAB
:103BB000807801FB002070472DE9F05F8146488B3B
:103BC000884680BB98F80000DFF864A000F03F0052
:103BD000401E00EB800101EBC004012000254FF6E0
:103BE000FF7B1AF8052002EB08010E8870B1FF2C4C
:103BF00019D2304601F0CCFA074639F81400641C9B
:103C000001F0C6FA87420ED1304601E05E450AD186
:103C10006D1C0D2DE5D398F80010490606D528B186
:103C200039F8140010B10020BDE8F09F0120FBE737
:103C3000D41203082DE9F0410F00064606D001F02A
:103C4000F9FC022809D20120BDE8F081F56815B120
:103C50007069A84207D8012505E0411CF4D07169BC
:103C60008142F1D83D462C467069641CA04202D8BE
:103C70000224022D0AD32146304601F0DBFC38B184
:103C8000411CE1D00128DFD0AC42EDD10020DBE7C0
:103C90006FF070422146304601F05CFE30B957B1FA
:103CA00022463946304601F055FE20B101280DD09C
:103CB00001242046C8E7F4603069411CF9D0401E59
:103CC0003061707940F001007071F2E74FF0FF341D
:103CD000EFE700002DE9F35F88460E6800E0761CF0
:103CE00030782F28FBD05C28F9D000980024254696
:103CF000D0F81CB0705D6D1C202825D32F2823D050
:103D00005C2821D0FF2C3FD2A0F181017D290BD866
:103D1000715D6D1C01EB0020A1F1400280B23F2AD1
:103D200002D380397F292FD2012101F00BFA07003D
:103D30002AD0802F04D2014667A0FFF729FF18BBC5
:103D40002BF81470641CD5E77219C8F800202028DD
:103D500001D2042516E0002514E00BEB440030F8F6
:103D6000020C20280DD02E280BD06CB100212BF88E
:103D7000141000980B222021806901F0CBFD002750
:103D800006E0641E002CE8D10620BDE8FC9F7F1CE5
:103D90003BF817002028FAD02E28F8D01FB145F0A4
:103DA000030500E0641E2CB10BEB440030F8020C5C
:103DB0002E28F7D14FF00008C1464FF0080A3BF813
:103DC00017607F1C06B3202E03D02E2E04D1A742ED
:103DD00002D045F00305F2E7D04501D2A74219D140
:103DE000BAF10B0F0ED0A74201D045F003050BD856
:103DF0004FEA896027464FF008084FF00B0A4FEA58
:103E00001069DCE745F00305009880690178E52931
:103E10003DD03EE0802E08D3304601F0B9F90021B4
:103E200001F090F9064645F00205FF2E0FD9AAF1E0
:103E30000100804503D345F00305D046BFE7009855
:103E4000310A826902F8081008F1010818E026B169
:103E5000314624A0FFF79CFE18B15F2645F003050C
:103E60000EE0A6F14100192802D849F0020907E046
:103E7000A6F16100192803D8203E49F00109B6B225
:103E80000098816901F8086008F1010897E70521A9
:103E90000170BAF1080F03D14FEA89604FEA106947
:103EA000C9F38100032803D06FEA0901890701D112
:103EB00045F00205A90709D409F00301012901D140
:103EC00045F01005012801D145F0080500988069EA
:103ED000C572002059E70000222A3A3C3E3F7C7F11
:103EE000000000002B2C3B3D5B5D00002DE9F047FE
:103EF0000446002100F02CFA002857D1FF254FF688
:103F0000FF79A846A4F820902169206801F009FDF6
:103F100007004AD16669307848B1F17AE52801F0A6
:103F20003F0139D00A0704D50F2935D105E0042710
:103F30003BE00F2901D0D5B11EE0E2697AB341061A
:103F400006D596F80D8020F04000E18805462184D2
:103F5000A84209D1717B414506D131461046FFF791
:103F60002BFE08B16D1E00E0FF25EDB217E03046D4
:103F700001F0B9FD404518D0A069C17AC9070BD13D
:103F80000B210022491E06D316F8012B10F8013B25
:103F9000D21AF7D000E042B1FF25A4F8209000210A
:103FA000204600F005F80700AED03846BDE8F0879F
:103FB0002DE9F041C78804467F1C38040E46000CEA
:103FC00033D0216989B3206842895209B7FBF2F3E3
:103FD00002FB1372002A59D1491C2161E16809B31F
:103FE000428983785209B7FBF2F25B1E1A424DD127
:103FF00001F020FB054601281CD9681C32D020683E
:104000004169A9423CD886B1E168FFF713FE05007B
:104010000ED0012D0ED0681C24D0206801F0C8FD00
:1040200000BB09E00089B84230D80420BDE8F08127
:104030000720FBE70220F9E72068002142893030A1
:1040400001F068FC29462068FFF7AAFD21680026D8
:104050004FF00108C8620CE080F80480206801F08D
:10406000A7FD08B10120E1E72068C16A491C761C60
:10407000C16220688178B142EED8C16A891BC162F1
:10408000E56029462068FFF78BFD2061E780206806
:1040900041894909B7FBF1F201FB1271302202EBB1
:1040A0004111084460610020C0E700002DE9F35F82
:1040B000FF2504462E4604274FF6FF7A4FF0000BEB
:1040C0006CE0206801F02DFC07006BD1626910786C
:1040D00088B1D17AE52801F03F010AD02E2808D016
:1040E00021F02003082B08D00023DDF804C063452D
:1040F00005D0FF2543E0042754E00123F5E70F290D
:1041000001D0C5BB42E0410605D5567B20F04000FA
:10411000E18805462184A8422FD1507BB0422CD1A2
:10412000508BE76940BB1078012300F03F00401E30
:1041300000EB800101EBC001DFF874900020D44651
:1041400019F800809044B8F8008033B1FF2914D2E8
:1041500027F811804346491C01E0E0450DD1401C81
:104160000D28EDD31078400603D5FF2905D227F896
:1041700011B06D1E02E00EE0FFE7FF25EDB2002159
:104180002046FFF715FF070008D00BE0104601F0AE
:10419000AAFCB04208D0A4F820A005E021690029BB
:1041A0008FD10FB1C4F810B03846BDE8FC9F0000B5
:1041B000D41203082DE9FF5F04460C22D4E90676E9
:1041C0003946684601F09EFB9DF80B00C00718D0E9
:1041D0000020F8720125E0612B46324669463846D8
:1041E00001F0E2F92046FFF781FE10B96D1C642D45
:1041F000F2D3642D0BD004280AD19DF80B00F8727D
:10420000E6619DF80B0080070FD5002004E0072031
:1042100004B0BDE8F09F401C36F810100029FAD118
:104220000D211930B0FBF1F500E0012500212046F9
:1042300000F08EF888B900272169206801F071FB31
:1042400058B961690978E5290AD049B100270121E7
:104250002046FFF7ADFE0028EED0042804D004E08D
:104260007F1CAF4201D0F2E7072006006BD16D1E24
:1042700050D0E088411B204600F06AF8060062D169
:10428000A06901F030FC4FF6FF7A039021692068A5
:1042900001F047FB060056D16169D4F81C900398E1
:1042A00048730F20C872002008738876EEB2C87673
:1042B000701E00EB800202EBC0030022DFF88CB01E
:1042C00001F1010801E0504502D039F813005B1CF0
:1042D0001BF802C001F80C001BF802704FEA102C0A
:1042E00007F808C000B95046521C0D2AEBD35045C0
:1042F00002D039F8130008B946F040060E70216864
:104300000120087100212046FFF752FE06001AD155
:104310006D1EBBD12169206801F003FB060012D19C
:1043200020220021606901F0F5FAD4E905010B2291
:1043300001F0E8FAA0696169C07A00F0180008731A
:10434000216801200871304662E70000D41203089A
:1043500070B5C18083680D460446012B3DD02068AE
:104360004169994239D923B90178032906D1436AB1
:1043700023B1418980784E09464310E00189A94262
:104380002BD9406A11E001F055F90346401C22D0B8
:10439000022B22D32068406998421ED9AD1B2068A9
:1043A000B5421946EFD2FFF7FBFBE360A8B12168E5
:1043B0004A895209B5FBF2F210442061488940094C
:1043C000B5FBF0F200FB1250302202EB4010084423
:1043D0006061002070BD012070BD022070BD10B56D
:1043E000012418B9FDF7AAFD00B90024204610BD2C
:1043F00010B5144602004FF0040014D191B1012908
:104400000AD0022902D003290CD103E04FF4007036
:10441000208007E0012004E00349002307C9FBF7DF
:10442000A3FE2060002010BDB01300201CB50424A2
:1044300048B9E001CDE90003D30D52020846FDF76B
:10444000BFFD00B9002420461CBD01004FF0010053
:1044500000D1002070471CB504240BB168B901E0FD
:1044600004201CBD4FF40070CDE90003D30D5202AF
:104470000846FDF729FE00B9002420461CBD10B5F2
:10448000044600F049FD002806D1204601F0B9FBA2
:10449000002801D10021216010BD10B5044601F0B3
:1044A000B0FB002801D10021216010BD2DE9F047AB
:1044B0000D46044601F0A5FB5FEA00087BD1E079D8
:1044C000002878D1E068A84203D2A179890700D4F6
:1044D00005460027A1684FF00109A7600DB32068C9
:1044E0004FF0020A86784289564369B16A1E491E16
:1044F000B2FBF6F2B1FBF6F39A4205D3701E81438C
:104500006D1AA16061690BE0216941B90021FFF7D3
:1045100091FB014601284BD0481C5AD021616161B2
:10452000D1B92DE0A0798007206805D5FFF782FB7F
:10453000010004D1354611E001F07CF80146481C29
:1045400047D0012934D920684069884230D9616157
:10455000A068AD1B3044A060B542E3D8A0682844F1
:10456000A06020684289B5FBF2F302FB13523AB116
:10457000FFF716FBE0B121684989B5FBF1F10F188F
:104580002068A1684289B1FBF2F302FB131129B341
:10459000A269BA4222D0A17904F12405490610D5B6
:1045A000407801232946FFF756FF90B905E002E065
:1045B00084F807A00220BDE8F087A07920F0400031
:1045C000A071206801233A4640782946FFF72EFF64
:1045D00018B184F807900120EDE7A761D4E9020142
:1045E000884204D9E060A07940F02000A0714046E4
:1045F000E1E700002DE9F74F86B0904607980128C3
:1046000003D9132009B0BDE8F08F06A801F0EBF83C
:10461000002801DA0B20F5E7F84951F820604EB187
:1046200000213170C0B20290FFF7D9FEC10703D05C
:104630000320E7E70C20E5E7400701D50A20E1E782
:1046400006F10A0202210298FFF7D2FE002876D175
:104650007089B0F5805F72D8B0F5007F6FD303AA80
:1046600001210298FFF7C4FE0028F0D103988028AA
:10467000F4D3079909B1002100E03F218A46A0EB5D
:104680000A01A8F1010218EA020F039102D1B8F160
:10469000000F13D170894FF4FA62400AB2FBF0F0B8
:1046A000B1FBF0F20020D64B00E0401C33F8105074
:1046B0009542FAD8D24A163232F81080B8F5007F07
:1046C00002D37289B8FBF2F8B8F1000F12D0B8F13A
:1046D000800F01D980208046B1FBF8F0012740F619
:1046E000F672904200D302274FF6F672904203D33F
:1046F000032725E00120EEE7032F21D0012F29D049
:104700004200121D7089521E0244B2FBF0F90125CD
:10471000AA03B2FBF0F004900AEB050B049A0BEB32
:104720000900841804EB0802A2EB0A00884244D86E
:104730006A4603210298FFF75BFEB0B910E0FFE084
:104740007289072303EB80001044B0FBF2F92025A7
:104750000020E0E700EB4000401C4208D21CD1E7FB
:10476000009810B1B0F5004F01D901200090211838
:10477000401E491E8143081B0090032F10D0814426
:1047800003980499421BA2EB0902521AB2FBF8F1FA
:104790000591022F07D0032F0AD0012F11D015E069
:1047A00005448344ECE740F6F672914205D30DE0F0
:1047B00008464FF6F671884201D20E2022E70C24FB
:1047C0000AE0B0F5803F06D2012405E0B0F5803F55
:1047D00001D2042400E00624079808B1F02038E054
:1047E000728906F130000021019001F093F806F57E
:1047F000F7700121417081700022C2700471FE21A6
:104800004171039B0AEB030143F6C163B1FBF3F172
:104810003F2343EA910400918471C1710372427293
:104820008272C272039901730A0A42730A0C82737C
:10483000090EC173552086F82E02AA2086F82F0291
:10484000DDE9011001230022FFF705FE002877D1E2
:10485000F820019006F1300472890021204601F011
:1048600059F80B2267A1204601F04CF87089E072DC
:10487000000A207384F80D80A573280AE0730120D4
:104880002074032F0BD040026074000AA0740398B8
:10489000B0F5803F05D2E074000A20750CE00020DE
:1048A000F2E784F82000010A84F82110010C84F852
:1048B0002210000E84F82300019860753F202076B6
:1048C00000206076FF21A176E07684F81CA04FEAF4
:1048D0001A2060774FEA1A40A0774FEA1A60E07713
:1048E00000F01CFF802129220090032F29D084F89A
:1048F0002700030A84F82830030C84F82930000EBE
:1049000084F82A0084F816904FEA1920E07584F89C
:10491000241084F8262013223DA104F12B0000F07E
:10492000F1FF552084F8FE01AA2084F8FF0101233D
:10493000524621460298FFF78EFD002800D136E04E
:10494000D9E084F84300030A84F84430030C84F867
:104950004530000E84F8460084F824904FEA192070
:1049600084F825004FEA194084F826004FEA1960C0
:1049700084F82700022084F82C00002084F82D0001
:1049800084F82E0084F82F00012384F8303084F856
:104990003100062384F8323084F8330084F8401064
:1049A00084F8422013221FA104F14700B7E7032F28
:1049B00006D101230AF1060221460298FFF74BFDBA
:1049C0005D464FF0000B72890021204600F0A2FFE7
:1049D00001980090032F31D0012F2DD06FF0FF01EF
:1049E0000143009121700098000A60700098000C4B
:1049F000A0700098000EE07037E000001001002069
:104A0000E2120308EBFE904D53444F53352E300015
:104A10004E4F204E414D452020202046415420201D
:104A2000202020004E4F204E414D45202020204682
:104A300041543332202020004949D1E760F0FF0083
:104A4000009020700098000A60700098000CA07020
:104A50000098000EE070FF2020716071A071E0717D
:104A600020726072A0720F20E0722A466D1C012332
:104A700021460298FFF7EFFCE8BB7289002120462F
:104A800000F048FF012009E02A466D1C0123214661
:104A90000298FFF7E0FC70BB0098401C009048456E
:104AA000F2D30BF101005FEA000B8CD0032F09D089
:104AB000049E2A466D1C012321460298FFF7CBFC79
:104AC000C8B901E04646F4E7761EF2D1032F3CD187
:104AD0005220207060706122A2704120E07072212B
:104AE00084F8E41184F8E51184F8E60184F8E721FC
:104AF0000598401E00E030E084F8E801010A84F8DF
:104B0000E911010C84F8EA11000E84F8EB0102208F
:104B100084F8EC01002084F8ED0184F8EE0184F8BB
:104B2000EF01552084F8FE01AA2084F8FF0101233B
:104B30000AF1010221460298FFF78DFC01230AF1D8
:104B4000070221460298FFF786FC002211460298D0
:104B5000FFF74EFC00283FF45EAD012052E5000057
:104B600000FFFF0017B581B0144602980090684618
:104B700000F039FE002802DA0B2004B010BD0B4B08
:104B8000002253F8201001B10A700199002900D0C9
:104B90000A7043F8201001D0012C01D00020ECE76E
:104BA000002202A901A800F089FBE6E7100100201D
:104BB0002DE9F747ADF50D7D06000ED04FF000084A
:104BC00002F01F0727F001028EA980A8C6F8008016
:104BD00000F074FB050005D08CE009200DF5107D78
:104BE000BDE8F0878AA88690CDF81CD280A88E995F
:104BF00000F094FC859C050001D104B9062517F04E
:104C00001C0F4ED055B1042D03D180A8FFF7D2FA66
:104C10000546859C47F0080745B16BE0E07A10F047
:104C2000110F48D1780701D5082563E0380748D52A
:104C300000F074FDA073010AE173020C2274030EEC
:104C40006374A075E1752276637684F80B8084F82E
:104C50001C8084F81D8084F81E8084F81F80214603
:104C6000809800F0DEFD81460021204600F033FFF1
:104C700080990120B9F1000F087120D08098494631
:104C8000D0F82CA000F0F6FE050033D18099A9F1F0
:104C90000100C8605146809800F043FE05000CD02A
:104CA00028E03DBBE07AC10601D5042522E0B90722
:104CB00003D5C00701D007251CE0380701D547F010
:104CC000200780982146C06AC6E90704B77186F8B4
:104CD00007804746809800F0A4FD3061207FD4F81B
:104CE0001D1040EA0120C6E90270B761809830606B
:104CF000C088B080284671E713B5ADF5047D040087
:104D000006D0002285A980A800F0D8FA20B122E0C0
:104D100009200DF5067D10BD8098206081A8A06156
:104D2000C4F81CD02046859900F0F8FB78B9616979
:104D300031B1C87AC00611D5809800F072FDA0602C
:104D400080980021C088A0802046FFF701FB04283E
:104D500004D00028DDD000212160DAE70520FAE741
:104D60002DE9F84F894600219A46164604461960F7
:104D700000F047FF002812D1E07900280FD1A07978
:104D8000C0070BD0D4E90210401A04F124014FF0FF
:104D9000010B0091864200D906468BE00720BDE852
:104DA000F88F2268A0685189B0FBF1F301FB13036F
:104DB000002B60D1B0FBF1F193785B1E194011F02C
:104DC000FF0509D108B31046616900F033FC0228E1
:104DD0001DD3411C49D0606161692068FEF7E0FE87
:104DE000A8B100EB050820684189B6FBF1F727B3AD
:104DF0008178EA198A4200D94F1B40783B464246E7
:104E00004946FFF713FB80BB04E02069DFE702207F
:104E1000E071C4E7A07940060BD5A169A1EB0800B9
:104E2000B84206D221684A89009900FB029000F03E
:104E300069FD206845897D4332E0A269424518D06A
:104E4000A179490609D5407801230099FFF703FBB2
:104E500058B9A07920F04000A07120680123424693
:104E600040780099FFF7E2FA18B184F807B0012002
:104E700095E7C4F818802068A1684089B1FBF0F27A
:104E800000FB1212851AB54200D93546B1FBF0F28B
:104E900000FB121001192A464846243100F032FD69
:104EA000A068A9442844A060DAF800004119761BE4
:104EB000CAF80010002E7FF474AF00206FE770B5C1
:104EC000ADF5047D0E46044600F09BFE002819D186
:104ED000DEB180A8A061C4F81CD000212046FFF7F5
:104EE000E5F80025042815D000280BD131462046CE
:104EF00000F018FC00212046FFF75AF8042801D1E1
:104F0000002025610DF5047D70BD00212046FFF7CE
:104F10001FFAF7E72561E9E770B5044600F071FE76
:104F200000280ED1A1798A060BD548060ED5206837
:104F3000012304F124014078A269FFF78CFA08B13B
:104F4000012070BDA07920F04000A071E1692068C7
:104F500000F0E7FC0028F4D1256AE87A40F0200050
:104F6000E872207B2877A089000A6877E068000C47
:104F7000A877E068000EE8772846216900F0ABFDCD
:104F800000F0CCFBA875010AE975010C2976000E2A
:104F900068760020A874E874A07920F02000A07141
:104FA0002168012008712068BDE8704000F0A8BDAC
:104FB0002DE9F84F894600219A46154604461960A6
:104FC00000F01FFE002806D1E079002803D1A07967
:104FD000800702D40720BDE8F88FA06804F12401FF
:104FE00042194FF0010B0091824276D39CE0226877
:104FF000A0685189B0FBF1F301FB1303002B70D1C2
:10500000B0FBF1F193785B1E194011F0FF0612D14D
:1050100008B1616902E0206928B900211046FEF755
:1050200009FE002859D001282DD0411C51D06061C3
:10503000216901B92061A07940060BD520680123C0
:10504000A26940780099FFF706FA98BBA07920F092
:105050004000A07161692068FEF7A2FD98B100EBE5
:10506000060820684189B5FBF1F727B38178F2196A
:105070008A4200D98F1B40783B4642464946FFF79B
:10508000EAF9B8B902E00220E071A4E7A169A1EB56
:105090000800B8420AD221684A8900FB02910098B0
:1050A00000F030FCA07920F04000A0712068468913
:1050B0007E432FE00DE0A269424510D0D4E90212F0
:1050C00091420CD24078012342460099FFF7AEF995
:1050D00028B184F807B001207DE728E001E0C4F89A
:1050E00018802068A1684089B1FBF0F200FB121221
:1050F000861AAE4200D92E46B1FBF0F200FB121028
:10510000204432464946243000F0FCFBA07940F0B0
:105110004000A071A068B1443044A060DAF80000FB
:105120008119AD1BCAF80010002D7FF460AFD4E9DF
:105130000201884200D9E060A07940F02000A0710F
:10514000002048E770B580281BD345F2205409B1F0
:105150000D4D00E00D4D00231022E11A01EBD1713D
:1051600003EB610135F82160864206D001D20B467F
:1051700000E00C46521EF0D104E01AB105EB8100AC
:10518000408870BD002070BD98B601081462000808
:1051900070B5802806D2A0F16101192901D8203804
:1051A00080B270BD0C230C4D00224FF4F774A11A8D
:1051B00002EB510135F81160864206D001D20A4651
:1051C00000E00C465B1EF2D170BD002BFCD0034802
:1051D00030F8110070BD00001C0B0308F80E030826
:1051E0002DE9F0470446C0B033212B48FAF7F4FF0D
:1051F000FBF7ACFC21462948FFF77EFD284E002135
:1052000005283071318104D028B126A0FEF7B8FA04
:105210003CE027A0FAE7214C274D28346F464FF495
:10522000807A4FF0FF0804F1090951466846FAF701
:10523000D3FF1A49C4E9067828311848FFF73FFE22
:10524000307118BB607A08B3207A8107EDD4C106AB
:105250000BD530894946C0EB00202844FAF7F4FF0B
:105260000D4A3089012111540DE04007DDD4A169B8
:10527000087800283089C0EB0020284400D1494636
:10528000FAF7E2FF3089401C3081CEE70348FFF790
:1052900004F940B0BDE8F087898F00208814002011
:1052A000180100206F70656E206661696C6564008E
:1052B0006E6F207061746800BC5C00202DE9FF47B0
:1052C0004FF0000A0746C0F800A01646084600F056
:1052D0008AFA050003D50B2004B0BDE8F0878C489E
:1052E00050F825408CB13C60207820B16078FFF701
:1052F000ACF8C1070BD084F800A0E8B26070FFF7EB
:105300006EF8C10708D00320E6E70C20E4E70EB1F1
:10531000400704D40020DFE71EB1400701D50A2072
:10532000DAE7607804F10A020221FFF761F8A0BB16
:105330006089B0F5007F31D3B0F5805F2ED80025AD
:1053400029462046FEF7F6FB012822D100206E46B2
:1053500004EB001191F8F22101F5F7712AB10A7AF4
:10536000D1F8091042EA012100E0002146F820109E
:10537000401C0428ECD3002756F8275025B12946B5
:105380002046FEF7D7FB00E0022048B17F1C042F27
:10539000F2D3032802D0E8BB02E0FFE701209BE73D
:1053A000B4F83B006289904262D1B4F8460028B953
:1053B00094F85400D4F8551040EA0120A06194F804
:1053C00040708146E770012F01D0022F50D194F830
:1053D0003D604743A670EEB1701E064248D1B4F856
:1053E00041104FEA521CB1FBFCF00CFB1010218164
:1053F00080B9B4F8430028B994F85000D4F851307B
:1054000040EA0320E38F2BB1B1FBFCFC03EB070860
:10541000C44400E02CE060452AD3A0EB0C00B0FBB4
:10542000F6F028B3012640F6F678404500D3022670
:105430004FF6F678404500D30326801CAC44C4F8F0
:1054400028C02B446061C4E90753032E12D079B100
:10545000D9196162022E18D000F0010100EB400062
:1054600001EB5000401E1044B0FBF2F149450ED94B
:105470000D2031E70029FBD194F85C10D4F85D30A1
:10548000800041EA03216162ECE74000EAE74FF067
:10549000FF302061E06080206071032E30D1B4F8CD
:1054A000600001282CD12046691C00F03AFA38BB74
:1054B00084F805A0B4F82E02A0F52A4155391FD171
:1054C00094F83000D4F8311040EA012011498842A4
:1054D00016D194F81402D4F8151240EA01200E49AE
:1054E00088420DD194F81802D4F8191240EA01202C
:1054F000206194F81C02D4F81D1240EA0120E060FB
:1055000003492670091F0888401C0880E08001E7D5
:1055100010010020525261417272416173B504461C
:10552000019908782F2801D05C2801D1491C0191EC
:105530000025A56001980078202805D2002120468A
:10554000FEF706FF65617CBD01A92046FEF7C2FBA0
:105550000028F8D12046FEF7C9FCA169C97A28B114
:105560000428F0D14907EED405207CBD4907FCD4BE
:105570006169C87AC006F7D5206800F052F9A060CA
:10558000E2E7000070B5074D0446C1B22846FDF7BA
:10559000F5FA80212846FDF759FA0028F9D020466F
:1055A00070BD0000003801407CB516461C4605461B
:1055B0000B2200F0A7F9052C11D91D4A0CE000219F
:1055C000B61C2346044663F35F044008E30300D59A
:1055D0005440491C1029F4D330880028EFD1072209
:1055E0006B4604F00F003030392800D9C01D9854A4
:1055F000521E2409F5D17E2000219854541E06E045
:1056000081387D2802D8A14206D0491C491C91420C
:1056100002D2685C2028F3D1082A02D2985C521C7E
:1056200000E020206854491C0829F5D37CBD000007
:10563000211001002DE9F0410D46044602290BD34B
:105640006069A84208D920784FF0FF36012807D0BA
:10565000022834D0032846D001263046BDE8F08128
:10566000608905EB5507B7FBF0F0216A014420463D
:1056700000F057F90028F0D16089B7FBF0F100FB8A
:1056800011717F1CB7FBF0F0214491F83080216A42
:105690000144204600F045F90028DED16089B7FBBF
:1056A000F0F100FB1170204490F8301048EA01201E
:1056B000E90701D00609D0E7C0F30B06CDE7608902
:1056C000216A4008B5FBF0F00144204600F029F9BA
:1056D0000028C2D161896800B0FBF1F201FB120021
:1056E0002044068EB9E76089216A8008B5FBF0F096
:1056F0000144204600F015F90028AED16189A800C8
:10570000B0FBF1F201FB1200204490F83010D0F809
:10571000310041EA002020F070469EE700487047C3
:10572000000021462DE9F0410E4601F1090501690D
:1057300069B3002143692E275A5C491C202A18D0DE
:10574000052A00D1E522092901D105F8017BA2F142
:105750004104192C0BD893F80CC0092901D310244B
:1057600000E008241CEA040F01D02032D2B205F870
:10577000012B0B29E0D3D97A3172197FD3F81D2080
:1057800041EA02213160198BB180D98AF1804FF052
:10579000000885F80080B769002F22D00169002435
:1057A000E9B1F169D9B1018CA1F57F42FF3A16D078
:1057B000C56910E00021FFF7C5FC40B1FF2802D900
:1057C000010A3955641CF169491EA14201D800241F
:1057D00005E03855641C35F8020B0028EAD107F8BB
:1057E0000480BDE8F08110B503464FF0FF301C681F
:1057F000002C13D0214600E0491C0A78202A0ED341
:105800003A2AF9D114F8012B303A0A2A06D28C42EE
:1058100004D1022A02D2491C1046196010BD002092
:1058200010BD0246488B1278032A02D1898A40EAC9
:1058300001407047FBF75AFFFBF708FFFBF720FD1D
:10584000FDF73EFC00210620FAF7F8FEFCF720FDEC
:105850000620FBF7CBFC4FF6FF70FBF72FFF22482B
:1058600000210388214802880846FBF7A5FAFDF7C6
:105870008DF8FDF787F91E4C012240212046FDF7E7
:10588000DDF8002280212046FDF7D8F80620FDF73C
:10589000C1FD18A0FDF774FF012217A11748FFF7FB
:1058A00061F9174C0D28207001D0A0B1FEE700224D
:1058B000114611A0FEF79EFE207000B1FEE7012206
:1058C0000DA10020FFF74EF9207001220AA10B481C
:1058D000FFF748F920700A48401CFAF767FEFBF70B
:1058E00093FEFDF76FFDFAE71C0000201A00002070
:1058F0000038014031000000303A0000340100203F
:105900001400002003E011F8013B00F8013B521E97
:10591000F9D27047C9B201E000F8011B521EFBD258
:10592000704770B50446C06A0E460025B0420FD0DD
:10593000204600F03DF905000AD160780123324687
:1059400004F13001FEF772FD08B16E1E0125E6621A
:10595000284670BD2DE9F04716460D46044602293B
:1059600002D36069A84202D80220BDE8F0872078FF
:1059700006F0FF084FF00109012825D002285FD06A
:105980000328F1D16089216A8008B5FBF0F0014459
:105990002046FFF7C6FF0028E7D16289A900B1FBC6
:1059A000F2F302FB131121444FF07043D1F8312080
:1059B00003EA0222324301F8302F130A4B70130C12
:1059C0008B70120ECA7052E0608905EB5507B7FB69
:1059D000F0F0216A01442046FFF7A3FF0028C4D15C
:1059E0006089B7FBF0F100FB1170204430307F1C60
:1059F000E90703D0017868F31F1100E03146017018
:105A000084F804906089216AB7FBF0F001442046D5
:105A1000FFF787FF0028A8D16189B7FBF1F201FBEE
:105A2000127121443031EA0702D0C6F3071205E0B3
:105A30000A78C6F3032302F0F0021A430A7016E054
:105A40006089216A4008B5FBF0F001442046FFF769
:105A500068FF002889D162896900B1FBF2F302FB7B
:105A600013112144320A81F8308081F8312084F802
:105A700004907AE72DE9F0410F460446022916D337
:105A80006069B84213D900261FE039462046FFF767
:105A9000D1FD05001CD0012D09D0681C09D00022C1
:105AA00039462046FFF756FF060011D103E00226D3
:105AB0000EE001260CE02069411C05D0401C20614D
:105AC000607940F0010060712F466069B842DCD80F
:105AD0003046BDE8F08181760A0AC2760A0C02756A
